{"abi":[{"type":"function","name":"performSkim","inputs":[{"name":"pool","type":"address","internalType":"address"}],"outputs":[],"stateMutability":"nonpayable"}],"bytecode":{"object":"0x6080604052348015600f57600080fd5b5060a180601d6000396000f3fe6080604052348015600f57600080fd5b506004361060285760003560e01c806365d2345b14602d575b600080fd5b603b6038366004603d565b50565b005b600060208284031215604e57600080fd5b81356001600160a01b0381168114606457600080fd5b939250505056fea2646970667358221220f1027bfd14842aa66d665e0cd19a4e4483e80646fd537745f7fa49ed2de3137464736f6c634300081a0033","linkReferences":{}},"methodIdentifiers":{"performSkim(address)":"65d2345b"},"id":37}