{"abi":[{"type":"function","name":"performSync","inputs":[{"name":"pool","type":"address","internalType":"address"}],"outputs":[],"stateMutability":"nonpayable"}],"bytecode":{"object":"0x6080604052348015600f57600080fd5b5060a180601d6000396000f3fe6080604052348015600f57600080fd5b506004361060285760003560e01c806385c2682614602d575b600080fd5b603b6038366004603d565b50565b005b600060208284031215604e57600080fd5b81356001600160a01b0381168114606457600080fd5b939250505056fea2646970667358221220a0c96116a4b436dabe73977ae19895a980e69f3bfcef20c3ea91a38d32517c1d64736f6c634300081a0033","linkReferences":{}},"methodIdentifiers":{"performSync(address)":"85c26826"},"id":37}