{"abi":[{"type":"function","name":"performExactSwap","inputs":[{"name":"pool","type":"address","internalType":"address"},{"name":"weth","type":"address","internalType":"address"},{"name":"usdc","type":"address","internalType":"address"}],"outputs":[],"stateMutability":"nonpayable"}],"bytecode":{"object":"0x6080604052348015600f57600080fd5b5060cc80601d6000396000f3fe6080604052348015600f57600080fd5b506004361060285760003560e01c80637940ae7614602d575b600080fd5b603d6038366004605a565b505050565b005b80356001600160a01b0381168114605557600080fd5b919050565b600080600060608486031215606e57600080fd5b607584603f565b9250608160208501603f565b9150608d60408501603f565b9050925092509256fea2646970667358221220bbcbd2f73201ca65f7e5ae3c177613affa2db3a55483cbbc63bcdea49913aaab64736f6c634300081a0033","linkReferences":{}},"methodIdentifiers":{"performExactSwap(address,address,address)":"7940ae76"},"id":29}