{"abi":[{"type":"constructor","inputs":[{"name":"_router","type":"address","internalType":"address"}],"stateMutability":"nonpayable"},{"type":"function","name":"performExactSwapWithRouter","inputs":[{"name":"weth","type":"address","internalType":"address"},{"name":"usdc","type":"address","internalType":"address"},{"name":"deadline","type":"uint256","internalType":"uint256"}],"outputs":[],"stateMutability":"nonpayable"},{"type":"function","name":"router","inputs":[],"outputs":[{"name":"","type":"address","internalType":"address"}],"stateMutability":"view"}],"bytecode":{"object":"0x60a0604052348015600f57600080fd5b50604051610197380380610197833981016040819052602c91603c565b6001600160a01b0316608052606a565b600060208284031215604d57600080fd5b81516001600160a01b0381168114606357600080fd5b9392505050565b6080516101136100846000396000604d01526101136000f3fe6080604052348015600f57600080fd5b506004361060325760003560e01c806334d0ad5d146037578063f887ea40146049575b600080fd5b6047604236600460a6565b505050565b005b606f7f000000000000000000000000000000000000000000000000000000000000000081565b6040516001600160a01b03909116815260200160405180910390f35b80356001600160a01b038116811460a157600080fd5b919050565b60008060006060848603121560ba57600080fd5b60c184608b565b925060cd60208501608b565b915060408401359050925092509256fea264697066735822122014f963344ec370b241297c2dbc720e0e7738b5fc241d554f6b1c92afb218a28c64736f6c634300081a0033","linkReferences":{}},"methodIdentifiers":{"performExactSwapWithRouter(address,address,uint256)":"34d0ad5d","router()":"f887ea40"},"id":30}