{"abi":[{"type":"function","name":"sayHelloWorld","inputs":[{"name":"token","type":"address","internalType":"address"}],"outputs":[{"name":"","type":"string","internalType":"string"}],"stateMutability":"nonpayable"}],"bytecode":{"object":"0x6080604052348015600f57600080fd5b5061024f8061001f6000396000f3fe608060405234801561001057600080fd5b506004361061002b5760003560e01c80637b31623514610030575b600080fd5b61004361003e3660046100c7565b610059565b604051610050919061011b565b60405180910390f35b6060816001600160a01b03166306fdde036040518163ffffffff1660e01b8152600401600060405180830381865afa158015610099573d6000803e3d6000fd5b505050506040513d6000823e601f3d908101601f191682016040526100c19190810190610164565b92915050565b6000602082840312156100d957600080fd5b81356001600160a01b03811681146100f057600080fd5b9392505050565b60005b838110156101125781810151838201526020016100fa565b50506000910152565b602081526000825180602084015261013a8160408501602087016100f7565b601f01601f19169190910160400192915050565b634e487b7160e01b600052604160045260246000fd5b60006020828403121561017657600080fd5b815167ffffffffffffffff81111561018d57600080fd5b8201601f8101841361019e57600080fd5b805167ffffffffffffffff8111156101b8576101b861014e565b604051601f8201601f19908116603f0116810167ffffffffffffffff811182821017156101e7576101e761014e565b6040528181528282016020018610156101ff57600080fd5b6102108260208301602086016100f7565b9594505050505056fea26469706673582212200386c2afa975d7c85e5a4df28faa2f58a1133a8948b85f2c249573e3658ae21d64736f6c634300081a0033","linkReferences":{}},"methodIdentifiers":{"sayHelloWorld(address)":"7b316235"},"id":31}