{"abi":[{"type":"constructor","inputs":[{"name":"_router","type":"address","internalType":"address"}],"stateMutability":"nonpayable"},{"type":"receive","stateMutability":"payable"},{"type":"function","name":"performSwapWithRouter","inputs":[{"name":"path","type":"address[]","internalType":"address[]"},{"name":"deadline","type":"uint256","internalType":"uint256"}],"outputs":[],"stateMutability":"nonpayable"},{"type":"function","name":"router","inputs":[],"outputs":[{"name":"","type":"address","internalType":"address"}],"stateMutability":"view"}],"bytecode":{"object":"0x60a0604052348015600f57600080fd5b506040516101e13803806101e1833981016040819052602c91603c565b6001600160a01b0316608052606a565b600060208284031215604d57600080fd5b81516001600160a01b0381168114606357600080fd5b9392505050565b60805161015d6100846000396000606d015261015d6000f3fe60806040526004361061002d5760003560e01c806319070d4b14610039578063f887ea401461005b57600080fd5b3661003457005b600080fd5b34801561004557600080fd5b506100596100543660046100ab565b505050565b005b34801561006757600080fd5b5061008f7f000000000000000000000000000000000000000000000000000000000000000081565b6040516001600160a01b03909116815260200160405180910390f35b6000806000604084860312156100c057600080fd5b833567ffffffffffffffff8111156100d757600080fd5b8401601f810186136100e857600080fd5b803567ffffffffffffffff8111156100ff57600080fd5b8660208260051b840101111561011457600080fd5b602091820197909650940135939250505056fea2646970667358221220c7a2ab59c191ad3150ef133e730d1b06001d38bffcbc4d8a0e010b9a9e4e275864736f6c634300081a0033","linkReferences":{}},"methodIdentifiers":{"performSwapWithRouter(address[],uint256)":"19070d4b","router()":"f887ea40"},"id":36}