{"abi":[{"type":"constructor","inputs":[{"name":"_pool","type":"address","internalType":"address"}],"stateMutability":"nonpayable"},{"type":"function","name":"first1DaySnapShot","inputs":[],"outputs":[],"stateMutability":"nonpayable"},{"type":"function","name":"first1DaySnapShot_Price0Cumulative","inputs":[],"outputs":[{"name":"","type":"uint256","internalType":"uint256"}],"stateMutability":"view"},{"type":"function","name":"first1DaySnapShot_TimeStamp","inputs":[],"outputs":[{"name":"","type":"uint32","internalType":"uint32"}],"stateMutability":"view"},{"type":"function","name":"first1HourSnapShot","inputs":[],"outputs":[],"stateMutability":"nonpayable"},{"type":"function","name":"first1HourSnapShot_Price0Cumulative","inputs":[],"outputs":[{"name":"","type":"uint256","internalType":"uint256"}],"stateMutability":"view"},{"type":"function","name":"first1HourSnapShot_TimeStamp","inputs":[],"outputs":[{"name":"","type":"uint32","internalType":"uint32"}],"stateMutability":"view"},{"type":"function","name":"second1DaySnapShot","inputs":[],"outputs":[{"name":"oneDayTwap","type":"uint224","internalType":"uint224"}],"stateMutability":"nonpayable"},{"type":"function","name":"second1DaySnapShot_Price0Cumulative","inputs":[],"outputs":[{"name":"","type":"uint256","internalType":"uint256"}],"stateMutability":"view"},{"type":"function","name":"second1DaySnapShot_TimeStamp","inputs":[],"outputs":[{"name":"","type":"uint32","internalType":"uint32"}],"stateMutability":"view"},{"type":"function","name":"second1HourSnapShot","inputs":[],"outputs":[{"name":"oneHourTwap","type":"uint224","internalType":"uint224"}],"stateMutability":"nonpayable"},{"type":"function","name":"second1HourSnapShot_Price0Cumulative","inputs":[],"outputs":[{"name":"","type":"uint256","internalType":"uint256"}],"stateMutability":"view"},{"type":"function","name":"second1HourSnapShot_TimeStamp","inputs":[],"outputs":[{"name":"","type":"uint32","internalType":"uint32"}],"stateMutability":"view"}],"bytecode":{"object":"0x6080604052348015600f57600080fd5b50604051610219380380610219833981016040819052602c916050565b600080546001600160a01b0319166001600160a01b0392909216919091179055607e565b600060208284031215606157600080fd5b81516001600160a01b0381168114607757600080fd5b9392505050565b61018c8061008d6000396000f3fe608060405234801561001057600080fd5b50600436106100b45760003560e01c8063867c860611610071578063867c8606146101295780638d79f6ce14610132578063de77f04d14610132578063ed91329714610134578063f19c44241461013d578063f22b0aaf1461014d57600080fd5b80630d51be30146100b957806340e8d346146100e357806349d84fba146100fa5780635909489d1461010a5780635de38ff2146101195780636e04f2311461010a575b600080fd5b6008546100c99063ffffffff1681565b60405163ffffffff90911681526020015b60405180910390f35b6100ec60035481565b6040519081526020016100da565b6006546100c99063ffffffff1681565b604051600081526020016100da565b6002546100c99063ffffffff1681565b6100ec60015481565b005b6100ec60075481565b6004546100c99063ffffffff1681565b6100ec6005548156fea26469706673582212201a6767ef3f654f74031dcd40792c7b8a8302821c7fedabe2b85aab2c15a910a964736f6c634300081a0033","linkReferences":{}},"methodIdentifiers":{"first1DaySnapShot()":"8d79f6ce","first1DaySnapShot_Price0Cumulative()":"f22b0aaf","first1DaySnapShot_TimeStamp()":"49d84fba","first1HourSnapShot()":"de77f04d","first1HourSnapShot_Price0Cumulative()":"867c8606","first1HourSnapShot_TimeStamp()":"5de38ff2","second1DaySnapShot()":"5909489d","second1DaySnapShot_Price0Cumulative()":"ed913297","second1DaySnapShot_TimeStamp()":"0d51be30","second1HourSnapShot()":"6e04f231","second1HourSnapShot_Price0Cumulative()":"40e8d346","second1HourSnapShot_TimeStamp()":"f19c4424"},"id":38}