{"abi":[{"type":"constructor","inputs":[{"name":"_router","type":"address","internalType":"address"}],"stateMutability":"nonpayable"},{"type":"function","name":"burnLiquidityWithRouter","inputs":[{"name":"pool","type":"address","internalType":"address"},{"name":"usdc","type":"address","internalType":"address"},{"name":"weth","type":"address","internalType":"address"},{"name":"deadline","type":"uint256","internalType":"uint256"}],"outputs":[],"stateMutability":"nonpayable"},{"type":"function","name":"router","inputs":[],"outputs":[{"name":"","type":"address","internalType":"address"}],"stateMutability":"view"}],"bytecode":{"object":"0x60a0604052348015600f57600080fd5b506040516101a53803806101a5833981016040819052602c91603c565b6001600160a01b0316608052606a565b600060208284031215604d57600080fd5b81516001600160a01b0381168114606357600080fd5b9392505050565b6080516101216100846000396000604e01526101216000f3fe6080604052348015600f57600080fd5b506004361060325760003560e01c8063a3e4e7a7146037578063f887ea4014604a575b600080fd5b6048604236600460a7565b50505050565b005b60707f000000000000000000000000000000000000000000000000000000000000000081565b6040516001600160a01b03909116815260200160405180910390f35b80356001600160a01b038116811460a257600080fd5b919050565b6000806000806080858703121560bc57600080fd5b60c385608c565b935060cf60208601608c565b925060db60408601608c565b939692955092936060013592505056fea2646970667358221220bf42db0085b5078cb1e94ed0d8558cb89695b28bf2997cbc7b4a3c340505e41664736f6c634300081a0033","linkReferences":{}},"methodIdentifiers":{"burnLiquidityWithRouter(address,address,address,uint256)":"a3e4e7a7","router()":"f887ea40"},"id":28}