{"abi":[{"type":"function","name":"burnLiquidity","inputs":[{"name":"pool","type":"address","internalType":"address"}],"outputs":[],"stateMutability":"nonpayable"}],"bytecode":{"object":"0x6080604052348015600f57600080fd5b5060a180601d6000396000f3fe6080604052348015600f57600080fd5b506004361060285760003560e01c80633f8f133e14602d575b600080fd5b603b6038366004603d565b50565b005b600060208284031215604e57600080fd5b81356001600160a01b0381168114606457600080fd5b939250505056fea2646970667358221220df9cb317cdb8ca3d198205f0453d9afebf26e4d396a4fac719de590e6efd309564736f6c634300081a0033","linkReferences":{}},"methodIdentifiers":{"burnLiquidity(address)":"3f8f133e"},"id":27}