{"abi":[{"type":"function","name":"addLiquidity","inputs":[{"name":"usdc","type":"address","internalType":"address"},{"name":"weth","type":"address","internalType":"address"},{"name":"pool","type":"address","internalType":"address"},{"name":"usdcReserve","type":"uint256","internalType":"uint256"},{"name":"wethReserve","type":"uint256","internalType":"uint256"}],"outputs":[],"stateMutability":"nonpayable"}],"bytecode":{"object":"0x6080604052348015600f57600080fd5b5060e08061001e6000396000f3fe6080604052348015600f57600080fd5b506004361060285760003560e01c80634ea5efef14602d575b600080fd5b603f6038366004605c565b5050505050565b005b80356001600160a01b0381168114605757600080fd5b919050565b600080600080600060a08688031215607357600080fd5b607a866041565b94506086602087016041565b93506092604087016041565b9497939650939460608101359450608001359291505056fea264697066735822122092ffd030d1ef94addedd4a2232736cb0c7ab439c6ac47e222f60eba48144a7ad64736f6c634300081a0033","linkReferences":{}},"methodIdentifiers":{"addLiquidity(address,address,address,uint256,uint256)":"4ea5efef"},"id":25}