{"abi":[{"type":"function","name":"backrun","inputs":[{"name":"router","type":"address","internalType":"address"},{"name":"weth","type":"address","internalType":"address"},{"name":"usdc","type":"address","internalType":"address"},{"name":"deadline","type":"uint256","internalType":"uint256"}],"outputs":[],"stateMutability":"nonpayable"},{"type":"function","name":"frontrun","inputs":[{"name":"router","type":"address","internalType":"address"},{"name":"weth","type":"address","internalType":"address"},{"name":"usdc","type":"address","internalType":"address"},{"name":"deadline","type":"uint256","internalType":"uint256"}],"outputs":[],"stateMutability":"nonpayable"}],"bytecode":{"object":"0x6080604052348015600f57600080fd5b5060df8061001e6000396000f3fe6080604052348015600f57600080fd5b506004361060325760003560e01c806337a509fc14603757806386f89bd2146037575b600080fd5b604860423660046065565b50505050565b005b80356001600160a01b0381168114606057600080fd5b919050565b60008060008060808587031215607a57600080fd5b608185604a565b9350608d60208601604a565b9250609960408601604a565b939692955092936060013592505056fea26469706673582212201ebc739dd76fb22505c84e3dae7ad90005c5eb356700836c46269a69b71cf2a364736f6c634300081a0033","linkReferences":{}},"methodIdentifiers":{"backrun(address,address,address,uint256)":"86f89bd2","frontrun(address,address,address,uint256)":"37a509fc"},"id":34}