{"abi":[{"type":"constructor","inputs":[{"name":"_router","type":"address","internalType":"address"}],"stateMutability":"nonpayable"},{"type":"function","name":"performSwap","inputs":[{"name":"path","type":"address[]","internalType":"address[]"},{"name":"deadline","type":"uint256","internalType":"uint256"}],"outputs":[],"stateMutability":"nonpayable"},{"type":"function","name":"router","inputs":[],"outputs":[{"name":"","type":"address","internalType":"address"}],"stateMutability":"view"}],"bytecode":{"object":"0x60a0604052348015600f57600080fd5b506040516103d53803806103d5833981016040819052602c91603c565b6001600160a01b0316608052606a565b600060208284031215604d57600080fd5b81516001600160a01b0381168114606357600080fd5b9392505050565b60805161034b61008a600039600081816055015260aa015261034b6000f3fe608060405234801561001057600080fd5b50600436106100365760003560e01c80639ee7b0041461003b578063f887ea4014610050575b600080fd5b61004e610049366004610140565b610093565b005b6100777f000000000000000000000000000000000000000000000000000000000000000081565b6040516001600160a01b03909116815260200160405180910390f35b6040516338ed173960e01b81526001600160a01b037f000000000000000000000000000000000000000000000000000000000000000016906338ed1739906100f390683635c9adc5dea000009060009088908890309089906004016101bc565b6000604051808303816000875af1158015610112573d6000803e3d6000fd5b505050506040513d6000823e601f3d908101601f1916820160405261013a9190810190610248565b50505050565b60008060006040848603121561015557600080fd5b833567ffffffffffffffff81111561016c57600080fd5b8401601f8101861361017d57600080fd5b803567ffffffffffffffff81111561019457600080fd5b8660208260051b84010111156101a957600080fd5b6020918201979096509401359392505050565b8681526020810186905260a060408201819052810184905260008560c08301825b878110156102125782356001600160a01b0381168082146101fd57600080fd5b835250602092830192909101906001016101dd565b506001600160a01b03959095166060840152505060800152949350505050565b634e487b7160e01b600052604160045260246000fd5b60006020828403121561025a57600080fd5b815167ffffffffffffffff81111561027157600080fd5b8201601f8101841361028257600080fd5b805167ffffffffffffffff81111561029c5761029c610232565b8060051b604051601f19603f830116810181811067ffffffffffffffff821117156102c9576102c9610232565b6040529182526020818401810192908101878411156102e757600080fd5b6020850194505b8385101561030a578451808252602095860195909350016102ee565b50969550505050505056fea26469706673582212200cf2ef836f4a8babff6987329d4e4a5cd56e6ebcf1b763533a8a7a972808a52964736f6c634300081a0033","linkReferences":{}},"methodIdentifiers":{"performSwap(address[],uint256)":"9ee7b004","router()":"f887ea40"},"id":34}