{"abi":[{"type":"constructor","inputs":[{"name":"_router","type":"address","internalType":"address"}],"stateMutability":"nonpayable"},{"type":"function","name":"performMultiHopWithRouter","inputs":[{"name":"mkr","type":"address","internalType":"address"},{"name":"weth","type":"address","internalType":"address"},{"name":"elon","type":"address","internalType":"address"},{"name":"deadline","type":"uint256","internalType":"uint256"}],"outputs":[],"stateMutability":"nonpayable"},{"type":"function","name":"router","inputs":[],"outputs":[{"name":"","type":"address","internalType":"address"}],"stateMutability":"view"}],"bytecode":{"object":"0x60a0604052348015600f57600080fd5b506040516101a53803806101a5833981016040819052602c91603c565b6001600160a01b0316608052606a565b600060208284031215604d57600080fd5b81516001600160a01b0381168114606357600080fd5b9392505050565b6080516101216100846000396000604e01526101216000f3fe6080604052348015600f57600080fd5b506004361060325760003560e01c806387b1dd1d146037578063f887ea4014604a575b600080fd5b6048604236600460a7565b50505050565b005b60707f000000000000000000000000000000000000000000000000000000000000000081565b6040516001600160a01b03909116815260200160405180910390f35b80356001600160a01b038116811460a257600080fd5b919050565b6000806000806080858703121560bc57600080fd5b60c385608c565b935060cf60208601608c565b925060db60408601608c565b939692955092936060013592505056fea264697066735822122071a32db3d08f2afa2814335b7a6841b6cb850bf6b9f2b18aaddf1a7e7d3fe26e64736f6c634300081a0033","linkReferences":{}},"methodIdentifiers":{"performMultiHopWithRouter(address,address,address,uint256)":"87b1dd1d","router()":"f887ea40"},"id":32}