{"abi":[{"type":"constructor","inputs":[{"name":"_router","type":"address","internalType":"address"}],"stateMutability":"nonpayable"},{"type":"receive","stateMutability":"payable"},{"type":"function","name":"addLiquidityWithRouter","inputs":[{"name":"usdcAddress","type":"address","internalType":"address"},{"name":"deadline","type":"uint256","internalType":"uint256"}],"outputs":[],"stateMutability":"nonpayable"},{"type":"function","name":"router","inputs":[],"outputs":[{"name":"","type":"address","internalType":"address"}],"stateMutability":"view"}],"bytecode":{"object":"0x60a0604052348015600f57600080fd5b50604051610190380380610190833981016040819052602c91603c565b6001600160a01b0316608052606a565b600060208284031215604d57600080fd5b81516001600160a01b0381168114606357600080fd5b9392505050565b60805161010c61008460003960006062015261010c6000f3fe608060405260043610602a5760003560e01c80633f76f08c146035578063f887ea4014605257600080fd5b36603057005b600080fd5b348015604057600080fd5b506050604c36600460a0565b5050565b005b348015605d57600080fd5b5060847f000000000000000000000000000000000000000000000000000000000000000081565b6040516001600160a01b03909116815260200160405180910390f35b6000806040838503121560b257600080fd5b82356001600160a01b038116811460c857600080fd5b94602093909301359350505056fea26469706673582212202532fd49b0229fdfbb99f6d65a925d31f47fb8899d0a28640731552080ca2e6364736f6c634300081a0033","linkReferences":{}},"methodIdentifiers":{"addLiquidityWithRouter(address,uint256)":"3f76f08c","router()":"f887ea40"},"id":26}